:020000040800F2
:10000000C0060020010100087F110008C910000887
:100010007B11000865040008B32000080000000000
:10002000000000000000000000000000D9140008DB
:10003000690C000800000000E11300084D1E0008D4
:100040001B0100081B0100081B0100081B01000820
:100050001B0100081B0100081B0100081B01000810
:100060001B0100081B0100081B0100081B01000800
:100070001B0100081B0100081B0100081B010008F0
:100080001B0100081B0100081B010008751F000868
:10009000592000081B0100081B0100081B01000873
:1000A0001B0100081B0100081B0100081B010008C0
:1000B0001B0100081B0100081B0100081B010008B0
:1000C0001B0100081B0100081B0100081B010008A0
:1000D0001B0100081B0100081B0100081B01000890
:1000E0001B0100081B010008E51E0008DFF80CD00A
:1000F00000F02AF80048004775280008C0060020D4
:100100000648804706480047FEE7FEE7FEE7FEE7B1
:10011000FEE7FEE7FEE7FEE7FEE7FEE75D1E0008FE
:10012000ED00000840EA01039B0703D009E008C97D
:10013000121F08C0042AFAD203E011F8013B00F8AC
:10014000013B521EF9D27047064C074D06E0E068AD
:1001500040F0010394E8070098471034AC42F6D30E
:10016000FFF7C8FFBC2A0008DC2A000870B58C180D
:1001700010F8015B15F0070301D110F8013B2A11BB
:1001800006D110F8012B03E010F8016B01F8016BA8
:100190005B1EF9D12B0705D40023521E0DD401F8A4
:1001A000013BFAE710F8013BCB1A921C03E013F86D
:1001B000015B01F8015B521EF9D5A142D8D30020A2
:1001C00070BD000070B50646002420480068007825
:1001D00000F07F0040282BD11C480068007800F018
:1001E000800018B3052E13D0902E18D11748006840
:1001F0008088C0F305204500284602F065FA1449BE
:100200000870681C02F060FA11494870114C0CE04B
:1002100001200F490870602048700E4C05E0002056
:100220000B49087048700B4C00BF01E0022070BD04
:100230000CB90220FBE705480068846100210348EF
:10024000006841820020A0470020F0E74001002024
:1002500090000020C102000810B504460249204663
:1002600001F076FC10BD0000F000002010B504463F
:100270000249204601F06CFC10BD0000E80000209F
:1002800070B5054606480068C478042C01DD0020DE
:1002900070BD044800EBC401284601F059FCF7E7A3
:1002A00040010020F80000200246002901DD022064
:1002B0007047002A01DD0220FAE70020F8E700007D
:1002C000014629B90220034A1268108200207047B3
:1002D0000148FCE7400100209000002010B500F02C
:1002E000DFFE002006490968887201F09FF801F0DE
:1002F000B7FE02F03BF900200249086010BD000083
:10030000400100201801002001460C4800680078D8
:1003100000F07F0040280FD1052909D2DFE801F065
:1003200003040506070004E003E002E001E000E04A
:1003300000BF00BF002070470220FCE74001002002
:1003400010B5002039490968887238490968C872AF
:100350003748C079354909684872002001F0BEF875
:100360004FF40071002001F045FA2021002001F037
:1003700007FA2021002001F073F96021002001F02C
:10038000E1F9002000F052FA2A4890F82C100020E1
:1003900001F078F9002001F0BBF90021012001F003
:1003A00029FAA021012001F0CDF94021012001F01E
:1003B000D9F92021012001F0E3F90021012001F009
:1003C00087F90021022001F015FA022001F032F92C
:1003D0004FF4A0724FF48071022001F0AFF8402278
:1003E0000121022001F0C4F8022000F0EBF9022004
:1003F00000F002FA022001F061FD4FF440510220AA
:1004000001F066F90021022001F0BAF9094890F8DC
:100410002C10002001F036F9002001F079F90020BD
:1004200001F064F801200449086010BD400100207B
:10043000722A000894000020180100200348006878
:10044000807A10B105200249086070474001002001
:10045000180100200420014908607047180100209D
:100460007047704700BFFEE70146CAB20B1243EA6D
:100470000220704710B5002449E047F6FF70294973
:1004800008602948008800F00F00284908700846D5
:100490000078274901EB8000D0F8000C84B204F406
:1004A0000040C8B12148007801EB8000D0F8000C72
:1004B000C0F30E0048F68F7108401C4909781C4AA9
:1004C00002EB8101C1F8000C18490978491E194A4C
:1004D00052F8210080471AE004F08000B8B11348B8
:1004E0000078134901EB8000D0F8000C48F60F713A
:1004F00008400E4909780E4A02EB8101C1F8000C50
:100500000A490978491E0C4A52F8210080470548DB
:10051000006880B20449088000F400400028ACD193
:1005200010BD0000445C00404C0000203C01002055
:1005300000500040740000205800002008B5002042
:10054000009022E19748008800F00F00964908705B
:100550000846007800287CD19448006894490880B7
:100560000846008800F030009249088090480088D2
:1005700000F440508E4908808C4909684BF6BF72E0
:1005800001EA020080F4005080F0200040F40041B5
:1005900041F08001854A11608248008800F0100017
:1005A00090BB1046006848F60F710840114608607D
:1005B00000F08CFD7D4909684BF6BF7201EA02002C
:1005C0007B49098801F4805109B180F48050784951
:1005D000098801F4005109B180F400507549098877
:1005E00001F0100109B180F010007249098801F092
:1005F000200109B180F0200081B241F4004141F0B6
:1006000080016A4A116008BDFFE76848006880B24F
:100610000090BDF8000000F40060B0B363480068CB
:10062000C0F30E0048F68F7108406049086001F081
:1006300067F95E4909684BF6BF7201EA02005C493E
:10064000098801F4805109B180F480505849098823
:1006500000E056E001F4005109B180F40050554922
:10066000098801F0100109B180F010005149098892
:1006700001F0200109B180F0200081B241F4004175
:1006800041F08001494A1160BDE7FFE7BDF8000075
:1006900000F40040002878D044480068C0F30E0001
:1006A00048F68F7108404149086000F05DFE3F49FF
:1006B00009684BF6BF7201EA02003D49098801F45E
:1006C000805109B180F480503949098801F4005102
:1006D00009B180F400503749098801F0100109B1CF
:1006E00080F010003349098801F0200109B180F041
:1006F000200081B241F4004141F080012B4A116099
:1007000081E7294800782C4901EB8000D0F8000CE3
:1007100080B20090BDF8000000F40040C0B1224853
:10072000007801EB8000D0F8000CC0F30E0048F612
:100730008F7108401C4909781F4A02EB8101C1F8FA
:10074000000C19490978491E1C4A52F821008047BB
:10075000BDF8000000F08000B8B1134800781649D9
:1007600001EB8000D0F8000C48F60F7108400E49EC
:100770000978114A02EB8101C1F8000C0A49097895
:10078000491E0F4A52F8210080470848443000684B
:1007900080B20449088000F4004000287FF4D2AE03
:1007A00000BF30E74C0000203C010020005C00400E
:1007B0005001002052010020005000407400002031
:1007C000580000200B4A02EB8001D1F8001C01F414
:1007D000804171B102EB8001D1F8001C48F68F72A4
:1007E00011404CF280021143024B03EB8002C2F82D
:1007F000001C7047005000400B4A02EB8001D1F80A
:10080000001C01F0400171B102EB8001D1F8001C25
:1008100048F68F72114048F2C0021143024B03EBBD
:100820008002C2F8001C704700500040084A02EBEA
:100830008001D1F8001C48F68F62114048F2800216
:100840001143034B03EB8002C2F8001C7047000009
:10085000005000402DE9F0472848006800F11005DD
:100860002E8826480068077AD6B9042F18D1244864
:10087000007801280FD100212248006880B2801C36
:10088000214A42F8101030202049088000BF002083
:100890001B49087003E0072710201C49088027E047
:1008A000AC88A64201D8042000E002200746B442EA
:1008B00000D93446A0B2A96888478046002000F0DD
:1008C000DFFB8146A2B24946404601F0F5FBA1B2EA
:1008D000002000F047FF2888001B288068882044FB
:1008E000688030200949088000020949088000BF5B
:1008F000024909680F72BDE8F0870000400100203E
:100900003A010020505C004000600040520100208D
:10091000500100202DE9F0412848006800F1100442
:100920002688A068C0B1BEB1A588B54200D93546B9
:10093000A8B2A168884707462088401B20806088AD
:1009400028446080002000F08BFB8046AAB241461C
:10095000384600F031FD00BF208850B14FF44050C0
:10096000174908800021084600F0FCFE3020154998
:1009700008802088A188884204DB03200F49096889
:10098000087218E02088002804DD05200B4909685A
:10099000087210E0208870B90620084909680872BA
:1009A00000210948006880B2801C084A42F81010F3
:1009B000302004490880BDE8F0810000400100209B
:1009C0005001002052010020505C004000600040B7
:1009D0002DE9F84F9B48006845780027BA46062D58
:1009E0001BD198480068007800F07F00002813D1E0
:1009F000944909688878012803D193490968CF6927
:100A00000AE0022803D1904909680F6A04E003282C
:100A100002D18D4909684F6A94E0002D64D189485C
:100A20000068408800285FD186480068C088022896
:100A30005AD1844800680079002855D1814800685F
:100A4000007800F07F0028B97E480068808808B9E7
:100A50007E4F77E07B480068007800F07F00012837
:100A600010D1784909684879774909688A6900216D
:100A70009047002866D173480068807A002861D0CA
:100A8000724F5FE06F480068007800F07F00022836
:100A900058D16C480068407900F00F06694800683A
:100AA000407900F0700967480068407900F08000E4
:100AB00038B1674901EB8600D0F8000C00F030082F
:100AC00006E0634901EB8600D0F8000C00F44058C2
:100AD00060480078B04235D9B9F1000F32D1B8F191
:100AE000000F2FD0594F2DE0082D07D15548006831
:100AF000007800F07F0028BB574F23E00A2D21D15A
:100B000050480068007800F07F0001281AD14D4855
:100B10000068807AB0B14B480068408890B9494875
:100B20000068007970B947480068C088012809D179
:100B3000444909684879444909688A69002190470D
:100B400000B9464F57B13F480068A0F812A03D4891
:100B5000006887610020B84700240FE0394A126816
:100B60005078394A1268116988470446032C05D128
:100B70000920344909680872BDE8F88F31480068D7
:100B8000008A4FF6FF71884204D109202D49096877
:100B90000872F1E7022C03D02A480068008A20B9C5
:100BA0000820284909680872E6E7264800680078A6
:100BB00000F08000E0B323480068C088009021481E
:100BC0000068008A0099884204D91E490098096883
:100BD000088223E01B480068008A1A490968C9880E
:100BE00088421BDA17480068008A1749096891F89B
:100BF0002C10884203DA0020194908700EE01148D1
:100C00000068008A1049096891F82C1090FBF1F2F5
:100C100001FB120010B90120114908700A48006850
:100C200090F82C10074800688182FFF713FE07E058
:100C3000FFE7032003490968087200030949088097
:100C400000BF99E74001002044010020A11B0008DB
:100C50000050004092000020251B0008751B000872
:100C60003A01002050010020704700000120014996
:100C7000087070470100002001200149087070478A
:100C80000000002001490860704700001404014082
:100C9000002123498279002A3AD00A461268036863
:100CA0009A430B461A600A1D126803689A430B1D8B
:100CB0001A60027911440A6803681A430A60184AE4
:100CC0000832126803689A43154B08331A601A1DDC
:100CD000126803689A43124B0C331A604279102A47
:100CE0000ED11A1F126803681A430D4B08331A609D
:100CF0001A1D126803681A43094B0C331A600DE081
:100D00000749427911440A6803681A430A6005E0FA
:100D1000027911440A6803689A430A607047000028
:100D20000004014010B5012910D1124B03EB8002E1
:100D3000D2F8002C48F68F731A4048F2C0031A43C9
:100D40000C4C04EB8003C3F8002C11E002290FD1F6
:100D5000084B03EB8002D2F8002C48F68F731A4040
:100D60004CF280031A43034C04EB8003C3F8002CBD
:100D700010BD00000050004010B5044629488442D0
:100D800008D10121042000F091FB0021042000F093
:100D90008DFB46E02448844208D10121082000F060
:100DA00085FB0021082000F081FB3AE01F488442C7
:100DB00008D10121102000F079FB0021102000F063
:100DC00075FB2EE01A48844208D10121202000F052
:100DD0006DFB0021202000F069FB22E015488442D1
:100DE00008D10121402000F061FB0021402000F0EB
:100DF0005DFB16E01048844208D10121802000F0FC
:100E000055FB0021802000F051FB0AE00B48844292
:100E100007D10121801500F049FB0021A01500F049
:100E200045FB10BD00080140000C014000100140CE
:100E30000014014000180140001C01400020014046
:100E40002DE9F04102460025002600200023002461
:100E5000002791F803C00CF00F0591F803C00CF0C7
:100E6000100CBCF1000F03D091F802C04CEA05054C
:100E700091F800C0BCF1000F31D0146800202BE0C5
:100E80004FF0010C0CFA00F3B1F800C00CEA0306B5
:100E90009E4220D183004FF00F0C0CFA03F7BC43A5
:100EA00005FA03FC4CEA040491F803C0BCF1280FD6
:100EB00006D14FF0010C0CFA00FCC2F814C00AE095
:100EC00091F803C0BCF1480F05D14FF0010C0CFAAA
:100ED00000FCC2F810C0401C0828D1D31460B1F83F
:100EE00000C0BCF1FF0F34DD546800202EE000F19B
:100EF000080C4FF0010808FA0CF3B1F800C00CEA36
:100F000003069E4221D183004FF00F0C0CFA03F729
:100F1000BC4305FA03FC4CEA040491F803C0BCF19D
:100F2000280F05D100F1080C08FA0CF8C2F814805B
:100F300091F803C0BCF1480F07D100F1080C4FF045
:100F4000010808FA0CF8C2F81080401C0828CED31B
:100F50005460BDE8F0810000F0B50A46002300248B
:100F60000021002500F00046B6F1004F02D11D4ED1
:100F7000F16901E01B4E7168C0F3034583B200F4D0
:100F80004016B6F5401F08D121F07061154E766805
:100F900026F07066134F7E6012E000F48016B6F5FE
:100FA000801F06D1032606FA05F4A14341F07061C3
:100FB00006E0460D360103FA06F6B14341F07061D2
:100FC00022B1460D360103FA06F6314300F0004621
:100FD000B6F1004F02D1034EF16101E0014E7160A4
:100FE000F0BD0000000001400246002093680B4065
:100FF0000BB1012000E000207047416170470161A2
:10100000704700000146034A02EB8100D0F8000C53
:1010100080B270470050004001460648006880B228
:1010200000EBC100801C044A32F81000C0F3090034
:1010300070470000505C00400060004001460648D8
:10104000006880B200EBC100801D044A32F8100035
:10105000C0F3090070470000505C00400060004091
:1010600001460548006880B200EBC100001D034A3C
:1010700032F8100080B27047505C004000600040C1
:1010800001460548006880B200EBC100034A32F80F
:10109000100080B270470000505C004000600040CB
:1010A00070B507480468001D0568001D06682C44DB
:1010B000344424B108220349204600F03FF870BDB3
:1010C000E8F7FF1F3A00002000BFFEE710B5184800
:1010D0000068047A022C01D0042C05D1FFF7BAFB7A
:1010E00013480068047A1CE0062C19D110480068E7
:1010F000407805280ED10E480068007800F07F0087
:1011000040B90B490968C87800F0F0F90949096845
:10111000086A80470849096888688047082400E011
:101120000824034909680C7200F05CF910BD000046
:10113000400100204C0100204401002030B50B4646
:10114000002100BF16E00A24B4EB107F05D930243B
:1011500004EB107403F8114005E0412404EB107413
:101160000A3C03F81140000100254C00641C1D5589
:101170004C1CE1B29142E6DB30BD00BFFEE7704798
:101180007047000070B5002100230F22C47804B31B
:10119000154C246804F4E064C4F5E064210AC1F14C
:1011A0000403CA40447804FA03F1847814402143CC
:1011B00009010E4C0678A155047804F01F0501249E
:1011C000AC4005786D11AD0005F1E025C5F8004192
:1011D00009E0047804F01F050124AC40044D0678B2
:1011E000761145F8264070BD0CED00E000E400E00B
:1011F00080E100E002490143024A116070470000AB
:101200000000FA050CED00E010B5002807DA0A0727
:10121000140E054A00F00F031B1FD45403E00A0705
:10122000130E024A135410BD18ED00E000E400E074
:1012300070B5022647480068447846480068007840
:1012400000F07F00002844D1092C03D100F028FDD4
:1012500006465FE0052C14D13E480068C0787F2820
:101260000BDC3C480068807838B93A4800688088D0
:1012700018B938480068807A08B1082565E000266A
:1012800048E0032C0ED133480068C078012807D10C
:1012900030480068808818B900F026FD064639E01D
:1012A000022637E0012C35D12A480068C078012891
:1012B0000DD128480068808848B926480068407ADF
:1012C00000F0200018B100F077FB064622E002266D
:1012D00020E020480068007800F07F00012805D158
:1012E0000B2C17D100F07CFD064613E0194800686E
:1012F000007800F07F0002280BD1012C03D100F010
:101300005BFB064606E0032C04D100F001FD064617
:1013100000E002264EB1E0B20F4A126851698847D8
:101320000646032E01D109250FE00EB108250CE079
:10133000062500210948006880B2801C084A42F84E
:10134000101030200749088000BF024909680D725B
:1013500070BD00004001002044010020505C0040AE
:10136000006000405201002010B511480068047A66
:10137000022C01D0042C01D1082412E0032C01D04E
:10138000052C05D1FFF7C6FA09480068047A08E081
:10139000072C05D107490968C8688047082400E080
:1013A0000824034909680C7200F01CF810BD000005
:1013B0004001002044010020F0B5561C7510074E76
:1013C00006EB41042B4605E034F8047B20F8017B52
:1013D000401C5B1E002BF7D1F0BD000000600040F8
:1013E0007047000010B50D4890F82C10002000F058
:1013F00049F90B480068007A082805D140020949DC
:10140000088010200849088005480068007A0928EB
:1014100001D1012010BD0020FCE700009400002055
:1014200040010020500100205201002010B5012091
:1014300000F05EFD01240B48046000200A4908808A
:1014400008460088074908600020091D08604FF41D
:10145000E0500549088008460088024908600020DD
:1014600010BD0000405C00404A01002029B1064A3E
:10147000D2690243044BDA6104E0034AD269824331
:10148000014BDA61704700000010024029B1064AA2
:1014900092690243044B9A6104E0034A92698243D1
:1014A000014B9A61704700000010024029B1064AC2
:1014B000D2680243044BDA6004E0034AD2688243F4
:1014C000014BDA60704700000010024001490860DB
:1014D00070470000D8004242704700004FF6F87194
:1014E0000140014A11607047505C004030B5014630
:1014F0000F4B1A78002014E003060E4C04EB9353B4
:10150000D3F8003C48F68F74234048F2800423430C
:10151000C4B223430406074D05EB9454C4F8003CC1
:10152000401C9042E8D341F08003034C236030BD5F
:1015300092000020005000404C5C004030B54B1041
:101540005B00094C2468A4B204EBC004074D45F8C5
:10155000143053105C00044B1B689BB203EBC003B8
:101560001B1D45F8134030BD505C0040006000403A
:1015700030B50B46012B1FD12C49096889B201EB0C
:10158000C001891C2A4D05EB41043E2A0BDD511197
:1015900002F01F050DB94D1EA9B24FF4004545EAF2
:1015A0008125256007E0511002F001050DB14D1CA9
:1015B000A9B28D0225600AE0022B08D11B490968F7
:1015C00089B201EBC001891C194C44F81120012B90
:1015D0001FD11649096889B201EBC001891D144D5C
:1015E00005EB41043E2A0BDD511102F01F050DB938
:1015F0004D1EA9B24FF4004545EA8125256007E05C
:10160000511002F001050DB14D1CA9B28D022560EB
:101610000AE0022B08D10549096889B201EBC00133
:10162000891D034C44F8112030BD0000505C00407F
:1016300000600040094A02EB8001D1F8001C41F42F
:10164000807148F68F72114048F280021143034BBB
:1016500003EB8002C2F8001C7047000000500040FD
:1016600010B54A105300054A126892B202EBC0024C
:10167000121D034C44F8123010BD0000505C0040B5
:101680000060004010B502460F48006880B200EBD1
:10169000C200801D0D4C04EB40033E290BDD4811B8
:1016A00001F01F040CB9441EA0B24FF4004444EAF8
:1016B00080241C6007E0481001F001040CB1441CB8
:1016C000A0B284021C6010BD505C0040006000406D
:1016D00030B50E4C04EB8003D3F8003C4BF68F740E
:1016E00003EA040201F480530BB182F4805201F446
:1016F00000530BB182F4005242F4004343F08003E4
:10170000024D05EB8004C4F8003C30BD00500040A1
:1017100010B50B4B03EB8002D2F8002C4BF68F7305
:1017200002EA030181F4805181F4005141F4004246
:1017300042F08002024C04EB8003C3F8002C10BD81
:101740000050004010B54A105200044B1B689BB279
:1017500003EBC003024C44F8132010BD505C004062
:1017600000600040044A126892B202EBC002921C70
:10177000024B43F812107047505C0040006000407C
:1017800030B50E4C04EB8003D3F8003C48F6BF7430
:1017900003EA040201F010030BB182F0100201F021
:1017A00020030BB182F0200242F4004343F0800397
:1017B000024D05EB8004C4F8003C30BD00500040F1
:1017C00010B50B4B03EB8002D2F8002C48F6BF7328
:1017D00002EA030181F0100181F0200141F400428E
:1017E00042F08002024C04EB8003C3F8002C10BDD1
:1017F0000050004010B5074B03EB8002D2F8002CDC
:1018000048F68F131A400A43024C04EB8003C3F8D6
:10181000002C10BD0050004010B500F001F810BDC4
:101820000CB50020019000903348006840F48030EF
:101830003149086000BF3048006800F40030009073
:101840000198401C0190009818B90198B0F5A06F5C
:10185000F1D12948006800F4003010B10120009057
:1018600001E0002000900098012843D1234800683F
:1018700040F01000214908600846006820F003008D
:1018800008600846006840F0020008601A48406896
:10189000194948600846406848600846406840F476
:1018A000806048600846406820F47C104860084624
:1018B000406840F4E81048600846006840F08070D6
:1018C000086000BF0C48006800F000700028F9D0E4
:1018D0000948406820F0030007494860084640680E
:1018E00040F00200486000BF0348406800F00C0070
:1018F0000828F9D10CBD0000001002400020024071
:1019000038B501242948006880B2001D284931F803
:10191000100080B201EB4000009026480068007A79
:10192000092832D000980078224909680870009888
:10193000401C0090009800781E4909684870009883
:10194000401C0090009800EB44000090009931F892
:10195000020B0091FEF788FD16490968488000983F
:1019600000EB44000090009931F8020B0091FEF763
:101970007BFD104909688880009800EB44000090C6
:10198000009800880B490968C88001200949096846
:10199000087208480068C08810B9FFF749FC01E0E8
:1019A000FFF716F8FFF71EFD38BD0000505C004041
:1019B00000600040400100202DE9F04754480068D5
:1019C000007800F07F08B8F1000F0AD15048006895
:1019D000407A00F0DF004E49096848720020BDE8F7
:1019E000F087B8F1020F7CD149480068408818B9E7
:1019F00047480068007908B10220F0E7DFF8149149
:101A000043480068477927F080052C464048006825
:101A1000407900F0800038B13F4901EB8400D0F8F4
:101A2000000C00F0300606E03B4901EB8400D0F8E2
:101A3000000C00F4405699F80000A84204D91EB1E9
:101A400033480068807A08B90220C8E707F08000B0
:101A500080B1314901EB8400D0F8000C00F0300077
:101A600010284BD1E0B2FEF7C7FEE0B23021FFF7FD
:101A700087FE43E0284901EB8400D0F8000C00F415
:101A80004050B0F5805F39D1E4B9244A92F82C1067
:101A9000E0B2FFF7F7FD204A02EB8401D1F8001C09
:101AA0004BF68F7201EA020080F4805080F40050FF
:101AB00040F4004141F08001174B03EB8402C2F86F
:101AC000001C1BE0E0B2FEF77DFE134A02EB84012E
:101AD000D1F8001C4BF68F7201EA020080F48050AE
:101AE00000E011E080F4005040F4004141F080013A
:101AF000094B03EB8402C2F8001C00BF08490968C7
:101B00004869804700206AE700BF022067E70000BD
:101B1000400100209200002000500040940000206E
:101B20004C01002010B504462CB901200649096873
:101B30000882002010BD05490968086880470248EE
:101B400000680A30F6E70000400100204C01002048
:101B500010B5024606480068438A32B98888C01A20
:101B6000034C24682082002010BD08681844FBE75D
:101B70004001002010B504462CB90120064909682F
:101B80000882002010BD054909688868804702481E
:101B900000680C30F6E70000400100204C010020F6
:101BA00010B504462CB90220394909680882002082
:101BB00010BD00203749088035480068007800F0E3
:101BC0007F0018BB32490968487A00F0200131B122
:101BD0003049097841F002012E4A117005E02D4983
:101BE000097801F0FD012B4A117000F0400131B17C
:101BF0002849097841F00101264A117005E025497C
:101C0000097801F0FE01234A11703AE0204800688B
:101C1000007800F07F00012801D11E48C8E71C4869
:101C20000068007800F07F00022828D1184A126866
:101C3000517901F00F0001F080027AB1164B03EBED
:101C40008002D2F8002C02F03002102A16D1114A7C
:101C5000127842F001020F4B1A700FE00E4B03EBAB
:101C60008002D2F8002C02F44052B2F5805F05D118
:101C7000084A127842F00102064B1A7001E0002077
:101C800096E70649096808698047024890E700001E
:101C90004001002038010020005000404C0100208D
:101CA00010B50E480068C0780D494978884213DCA9
:101CB0000A480068807878B908480068808858B970
:101CC00006480068C07805490968887205490968AE
:101CD00048688047002010BD0220FCE7400100203A
:101CE000920000204C01002010B507480068407A9F
:101CF00040F0200004490968487204490968C8692D
:101D00008047002010BD0000400100204C01002051
:101D10002DE9F0412E480068467926F080073C46C0
:101D20002B480068407900F0800038B1294901EB68
:101D30008400D0F8000C00F0300506E0254901EBE6
:101D40008400D0F8000C00F4405523480078A042ED
:101D500008D91F480068408820B91DB11C48006898
:101D6000807A10B90220BDE8F08106F08000A0B1B1
:101D7000184A02EB8401D1F8001C48F6BF7201EA50
:101D8000020080F0100040F4004141F08001114B4E
:101D900003EB8402C2F8001C14E00E4A02EB84013B
:101DA000D1F8001C4BF68F7201EA020080F48050DB
:101DB00040F4004141F08001064B03EB8402C2F87D
:101DC000001C00BF05490968886980470020CAE7F0
:101DD0004001002000500040920000204C010020F3
:101DE00010B5174B1B68D978154B1B685879154BE4
:101DF0001B689A699047044611480068807AE8B1E8
:101E00003CB90F480068007918B90D48006880781F
:101E100008B1022010BD8CB90B490968C868804719
:101E200007480068407906490968C8720448006894
:101E3000C0780349096808730020EBE70220E9E74E
:101E400040010020440100204C01002002480068AD
:101E5000401C0149086070473400002010B5134849
:101E6000006840F0010011490860084640681049C8
:101E700008400E494860084600680E4908400B4972
:101E800008600846006820F4802008600846406822
:101E900020F4FE0048604FF41F008860FFF7BCFC90
:101EA0004FF000600449086010BD000000100240BF
:101EB0000000FFF8FFFFF6FE08ED00E0084A02EB25
:101EC0008001D1F8001C48F68F72114048F2C00220
:101ED0001143034B03EB8002C2F8001C7047000063
:101EE0000050004010B54FF48020FEF7CBFE10BD2F
:101EF00010B5044624B140210448FFF780F803E000
:101F000040210248FFF779F810BD0000000C0140A5
:101F100010B50020FFF7DAFA0121C805FFF7A6FA8D
:101F200010BD1CB54FF48020FEF7ACFE4FF48020AE
:101F3000009008208DF8050001208DF80600684605
:101F4000FEF7A6FE1CBD000008B501210820FFF722
:101F50009DFA4020ADF8000010208DF8030002200B
:101F60008DF8020069460248FEF76AFF08BD0000CE
:101F7000000C014010B5FEF77DFA10BD10B5FFF75B
:101F8000E3FF00F023F8FFF7CCFFFFF7C1FF10BD20
:101F900010B5084808490860022009680872074817
:101FA0000749086007480849086005490968086842
:101FB000804710BDA40200204001002094000020B2
:101FC00044010020C40000204C01002008B54FF45B
:101FD000A060FFF70FF914208DF8000002208DF8A3
:101FE000010000208DF8020001208DF803006846F2
:101FF000FFF7C8F82A208DF8000001208DF80100B5
:102000006846FFF7BFF808BD10B50F4800680F49D4
:1020100008800846008800F400400D4909880840FF
:1020200008B1FEF78BFA0948008800F4806008497F
:102030000988084030B14FF6FF3003490860054970
:102040004868804710BD0000445C00404C00002000
:102050004A0100209400002010B5FFF7D5FF10BD05
:102060000020064908604FF40440054908800846EE
:1020700000880249091F086000207047445C004046
:102080004A0100202DE9F04104460E46154604F0B1
:102090007F00FEF7F5FF0746AAB23946304600F04A
:1020A0000BF8A9B204F07F00FFF75CFB0020BDE84D
:1020B000F08100BFFEE70000F0B5144604F1010C0A
:1020C0004FEA6C07DFF824C00CEB41033D460AE001
:1020D0000678401C90F800C046EA0C2223F8022B38
:1020E0009B1C401C6D1E002DF2D1F0BD0060004015
:1020F00002E008C8121F08C1002AFAD170477047D1
:10210000002001E001C1121F002AFBD1704710B569
:1021100000F0AAF800F042F800F0E2F810BD00006C
:1021200010B50020114908700120114908700020E5
:10213000104908601049087010490870104908607B
:1021400001201049087000200F4908600F490860FD
:1021500001200F4908706020487040220D490E4848
:1021600000F014FC00F0FAF810BD000000000020A0
:10217000010000200C0000201000002011000020B1
:102180001400002018000020040000200800002097
:10219000D4010020940100201402002010B549E071
:1021A0002A482B490968445C2A48006848BB04F067
:1021B000800008B1012000E000202749087004F0E9
:1021C000400008B1012000E00020244908702248A6
:1021D000007820B104F03F001E49086025E01F4848
:1021E000007850B1204600F07FF900F075F9044600
:1021F00021461B4800F0E7FB17E0204600F074F989
:1022000013E01648007840B1204600F0C7F80446B5
:102210002146134800F0D7FB02E0204600F01EF9EB
:102220000C480068401E0B49086009480068401CC3
:1022300007490860064800680A490968884204D2CC
:10224000074800F0B5FB0028AAD010BD54010020BB
:10225000080000200C0000201000002011000020C9
:10226000140200200400002010B51948007800B9BD
:1022700010BD1848006818490968884200D0F7E77F
:102280000220FEF7BFFE00F0400050B10220FEF732
:10229000C3FE044622464FF480711048FFF78CF8C5
:1022A00009E00220FEF7CAFE044622464FF4A07160
:1022B0000A48FFF781F808480460002005490860D3
:1022C0000349087001210220FEF72CFD00BFCFE773
:1022D000000000200800002004000020540100201D
:1022E00010B51948007800B910BD184800F07FFB00
:1022F00004463E2C01D93E240FE074B900F002FBE5
:1023000013490968401A0A2807D21248007818B100
:1023100000201049087000E0E6E700F0F3FA0C49ED
:10232000086022460C49094800F0F2FA00200649EC
:102330000870A21C0849891E8120FFF7A3FE012016
:10234000FFF73EFA00BFCFE7010000201402002093
:102350001400002018000020D601002038B501210B
:102360000420FFF793F81320ADF8000001208DF84A
:1023700002001020084C8DF8030069462046FEF745
:102380005FFD4020ADF8000048208DF8030069464D
:102390002046FEF755FD38BD000801402E49C1F822
:1023A0009001D1F818310122C1F88021400840EA9B
:1023B000C3130020C1F88001C1F89031D1F818C1D1
:1023C000C1F880215B0843EACC13C1F88001C1F851
:1023D0009031D1F818C1C1F880215B0843EACC13D1
:1023E000C1F88001C1F89031D1F818C1C1F880213D
:1023F0005B0843EACC13C1F88001C1F89031D1F8F1
:1024000018C1C1F880215B0843EACC13C1F88001F0
:10241000C1F89031D1F818C1C1F880215B0843EAB6
:10242000CC13C1F88001C1F89031D1F818C1C1F8BE
:1024300080215B0843EACC13C1F88001C1F89031D8
:10244000D1F818C1C1F880215A0842EACC12C1F86B
:102450008001D0B270470000000021421D49C1F840
:1024600090010122C1F8802143080020C1F88001B9
:10247000C1F89031C1F880215B08C1F88001C1F832
:102480009031C1F880215B08C1F88001C1F890311A
:10249000C1F880215B08C1F88001C1F89031C1F812
:1024A00080215B08C1F88001C1F89031C1F880211A
:1024B0005B08C1F88001C1F89031C1F880215B0848
:1024C000C1F88001C1F89031C1F88021C1F88001C4
:1024D00070470000000021420248D0F81801C0B245
:1024E00070470000000021420849C0F30012C1F803
:1024F0009021C0F34002C1F8842100F00102C1F82C
:102500008021C0F34010C1F89401704700002142BF
:1025100010B5044603E04FF47A7000F005F8201E71
:10252000A4F10104F7D110BD30B5044600F0CCF998
:10253000054600BF00F0C8F9401BA042FAD330BDE9
:1025400030B502460B464AF6AA2000210AE0555C47
:102550004C1C145D45EA04246040440044EAE03425
:10256000A0B2891C9942F2D330BD0000F0B500261C
:102570004F4C504800785049097808444F49097831
:102580000844642801DD701EF0BD002004F8010B32
:1025900004F8010B002506E005F108004849085C35
:1025A00004F8010B6D1C062DF6D34648C07904F8DB
:1025B000010B4448007A04F8010B1C2004F8010BBD
:1025C000002004F8010B3E48807804F8010B3C48D9
:1025D000C07804F8010B3648201A801DC0B240F0C4
:1025E000800604F8016B3348007804F8010B314889
:1025F00000783044C6B204F8016B2F48007804F824
:10260000010B2D4800783044C6B204F8016B2B480A
:10261000007804F8010B002504E02648405D04F82A
:10262000010B6D1C23480078A842F6D8002504E071
:102630002148405D04F8010B6D1C1F480078A8423A
:10264000F6D8002504E01D48405D04F8010B6D1C20
:102650001A480078A842F6D8022004F8010B03209B
:1026600004F8010B012004F8010B002004F8010B11
:10267000522004F8010B452004F8010B562004F801
:10268000010B422004F8010B02E0002004F8010BCA
:102690000748201A7E28F8DB7E210548FFF750FF07
:1026A000074604F8017B380A04F8010B00206BE7A9
:1026B00024020020962A0008A42A000838000020DE
:1026C000602A0008722A000801460448425C03465A
:1026D000481C185C42EA00207047000024020020D9
:1026E00038B5002401211020FEF7D0FE1148FEF776
:1026F00043FB4FF40050ADF8000048208DF8030074
:1027000069460C48FEF79CFB0A20FFF701FF4FF4D7
:1027100000510848FEF768FC08B9012000E00020DD
:1027200004460448FEF728FB00211020FEF7AEFE09
:10273000204638BD0010014070B504460D461646CF
:1027400001200949087009480480094805800948A2
:10275000068000200849088000F0D4F80749086086
:1027600020200749086070BD1C00002026000020C2
:10277000280000202A000020240000202000002043
:102780001408014008B501210420FEF77FFE202037
:10279000ADF8000002208DF8020010208DF8030033
:1027A00069460248FEF74CFB08BD000000080140E6
:1027B00010B5FFF7E7FF20200449086000F0A2F8F9
:1027C0000349086000200349087010BD100801404B
:1027D000200000201C00002010B51F4909780129A5
:1027E00035D100F08FF81D490988411A1C4A12881A
:1027F00011441B4A11801949086011460988194A79
:102800001288914202DB2021174A1160144909887D
:10281000164A1288914219DB1549098800290EDDF4
:1028200013490988491E124A11801146098831B995
:102830000021094A117020210B4A116010BD0021AE
:10284000074A11802021084A121F116000E000BFD2
:1028500000BF00BFF2E700001C00002020000020A5
:102860002400002028000020140801402600002039
:102870002A00002001210846FEF708FE0121104829
:10288000FEF76AFB00F0B8F8FFF792FFFFF748FC8D
:10289000FFF726FF18B9FFF771FBFFF779FB00225E
:1028A00064214FF49670FFF747FF07E0FFF794FFAE
:1028B00004480068052801D1FFF729FCF6E700006D
:1028C000000230001801002000BF0B4801684FF0E3
:1028D000E0208269084800688142F6D10748006814
:1028E000801A074B1B68B0FBF3F001EB4103C3EB0D
:1028F000C11300EBC30070473400002030000020FB
:102900002C000020014800687047000034000020BF
:102910002DE9F04104460E4615460027D4E9020190
:10292000401AA84201D3284602E0D4E90201401A25
:1029300005466168491EE06808406168081AA842B7
:1029400001D3284605E06168491EE06808406168D7
:10295000081A07466268521EE06810402268811813
:102960003A463046FDF7DEFBEA1BF0192168FDF719
:10297000D9FBE0682844E060D4E90201884202D132
:102980000020E060A0602846BDE8F081034612B157
:10299000501E104008B10020704700201860586099
:1029A0009860D86019605A609860D8600120F3E799
:1029B0000146D1E90202801A4A68904201D1012001
:1029C00070470020FCE710B503460C461846FFF799
:1029D000EFFF08B1002010BDD3E90110491E0840E7
:1029E00019680C549868401C98600120F3E7014670
:1029F000D1E90202801A704710B5154800681549E0
:102A0000B0FBF1F014490860114800684FF47A7186
:102A1000B0FBF1F01149086008460468601EB0F18F
:102A2000807F00D30FE0601E4FF0E02148610F214E
:102A30004FF0FF30FEF7E8FB00204FF0E021886107
:102A40000720086100BF0021481EFEF7DDFB10BD16
:102A50002401002040420F002C0000203000002004
:102A60001201000200000040FB09016000040102A5
:102A700003010902200001010080E10904000002B5
:102A8000FFFFFF0007058102400001070502024029
:102A90000001040309040E0341006C00740065008A
:102AA0007200610018035500530042002D004200DF
:102AB0006C0061007300740065007200DC2A00087D
:102AC00000000020540100006C010008582B000891
:102AD000540100206C05000000210008110236019D
:102AE00014120330C902E1136D0C0C180881110493
:102AF0000A15792021150301DD0214084103140889
:102B000061041B08630413C5011B0809101AA918E6
:102B10001A6D041A59041A810441324029381A3DA9
:102B20002809166C1A551C13602A3308121A7208E9
:102B300032201A920832041A9608320E1AA4083269
:102B40001822382A2028D12BA24A2B5100091C0117
:082B5000020304060708090056
:04000005080000ED02
:00000001FF
